{
  "_format": "hh-sol-artifact-1",
  "contractName": "NeedFund",
  "sourceName": "src/contracts/NeedFund.sol",
  "abi": [
    {
      "inputs": [],
      "stateMutability": "nonpayable",
      "type": "constructor"
    },
    {
      "anonymous": false,
      "inputs": [
        {
          "indexed": false,
          "internalType": "uint256",
          "name": "id",
          "type": "uint256"
        },
        {
          "indexed": false,
          "internalType": "string",
          "name": "actionType",
          "type": "string"
        },
        {
          "indexed": true,
          "internalType": "address",
          "name": "caller",
          "type": "address"
        },
        {
          "indexed": false,
          "internalType": "uint256",
          "name": "timestamp",
          "type": "uint256"
        }
      ],
      "name": "Action",
      "type": "event"
    },
    {
      "inputs": [
        {
          "internalType": "uint256",
          "name": "id",
          "type": "uint256"
        }
      ],
      "name": "backProject",
      "outputs": [
        {
          "internalType": "bool",
          "name": "result",
          "type": "bool"
        }
      ],
      "stateMutability": "payable",
      "type": "function"
    },
    {
      "inputs": [
        {
          "internalType": "string",
          "name": "title",
          "type": "string"
        },
        {
          "internalType": "string",
          "name": "description",
          "type": "string"
        },
        {
          "internalType": "string",
          "name": "imageURL",
          "type": "string"
        },
        {
          "internalType": "uint256",
          "name": "costNeeded",
          "type": "uint256"
        },
        {
          "internalType": "uint256",
          "name": "expiredAt",
          "type": "uint256"
        }
      ],
      "name": "createProject",
      "outputs": [
        {
          "internalType": "bool",
          "name": "result",
          "type": "bool"
        }
      ],
      "stateMutability": "nonpayable",
      "type": "function"
    },
    {
      "inputs": [
        {
          "internalType": "uint256",
          "name": "id",
          "type": "uint256"
        }
      ],
      "name": "deleteProject",
      "outputs": [
        {
          "internalType": "bool",
          "name": "result",
          "type": "bool"
        }
      ],
      "stateMutability": "nonpayable",
      "type": "function"
    },
    {
      "inputs": [
        {
          "internalType": "uint256",
          "name": "id",
          "type": "uint256"
        }
      ],
      "name": "getBackers",
      "outputs": [
        {
          "components": [
            {
              "internalType": "address",
              "name": "owner",
              "type": "address"
            },
            {
              "internalType": "uint256",
              "name": "totalDonatingAmount",
              "type": "uint256"
            },
            {
              "internalType": "uint256",
              "name": "timestamp",
              "type": "uint256"
            },
            {
              "internalType": "bool",
              "name": "refunded",
              "type": "bool"
            }
          ],
          "internalType": "struct NeedFund.Backer[]",
          "name": "",
          "type": "tuple[]"
        }
      ],
      "stateMutability": "view",
      "type": "function"
    },
    {
      "inputs": [],
      "name": "getProjects",
      "outputs": [
        {
          "components": [
            {
              "internalType": "uint256",
              "name": "index",
              "type": "uint256"
            },
            {
              "internalType": "address",
              "name": "owner",
              "type": "address"
            },
            {
              "internalType": "string",
              "name": "projectTitle",
              "type": "string"
            },
            {
              "internalType": "string",
              "name": "projectDescription",
              "type": "string"
            },
            {
              "internalType": "string",
              "name": "projectImageURL",
              "type": "string"
            },
            {
              "internalType": "uint256",
              "name": "cost",
              "type": "uint256"
            },
            {
              "internalType": "uint256",
              "name": "raised",
              "type": "uint256"
            },
            {
              "internalType": "uint256",
              "name": "totalRaisedSoFar",
              "type": "uint256"
            },
            {
              "internalType": "uint256",
              "name": "timestamp",
              "type": "uint256"
            },
            {
              "internalType": "uint256",
              "name": "expiredAt",
              "type": "uint256"
            },
            {
              "internalType": "uint256",
              "name": "backers",
              "type": "uint256"
            },
            {
              "internalType": "enum NeedFund.ProjectStatus",
              "name": "status",
              "type": "uint8"
            }
          ],
          "internalType": "struct NeedFund.Project[]",
          "name": "",
          "type": "tuple[]"
        }
      ],
      "stateMutability": "view",
      "type": "function"
    },
    {
      "inputs": [
        {
          "internalType": "uint256",
          "name": "id",
          "type": "uint256"
        }
      ],
      "name": "payoutToUser",
      "outputs": [],
      "stateMutability": "nonpayable",
      "type": "function"
    },
    {
      "inputs": [
        {
          "internalType": "uint256",
          "name": "id",
          "type": "uint256"
        },
        {
          "internalType": "string",
          "name": "newTitle",
          "type": "string"
        },
        {
          "internalType": "string",
          "name": "newDescription",
          "type": "string"
        },
        {
          "internalType": "string",
          "name": "newImageURL",
          "type": "string"
        },
        {
          "internalType": "uint256",
          "name": "newExpiredAt",
          "type": "uint256"
        }
      ],
      "name": "updateProject",
      "outputs": [
        {
          "internalType": "bool",
          "name": "result",
          "type": "bool"
        }
      ],
      "stateMutability": "nonpayable",
      "type": "function"
    }
  ],
  "bytecode": "0x608060405234801561001057600080fd5b50336000806101000a81548173ffffffffffffffffffffffffffffffffffffffff021916908373ffffffffffffffffffffffffffffffffffffffff160217905550612ba3806100606000396000f3fe6080604052600436106100705760003560e01c80639a3fa8c71161004e5780639a3fa8c7146101185780639f39a19414610155578063c9168b7214610185578063dcc60128146101c257610070565b8063056c29ee146100755780634cd0cb28146100b25780637a6fc6b5146100ef575b600080fd5b34801561008157600080fd5b5061009c60048036038101906100979190611b09565b6101ed565b6040516100a99190611bf3565b60405180910390f35b3480156100be57600080fd5b506100d960048036038101906100d49190611c0e565b6106e5565b6040516100e69190611bf3565b60405180910390f35b3480156100fb57600080fd5b5061011660048036038101906101119190611c0e565b610973565b005b34801561012457600080fd5b5061013f600480360381019061013a9190611c3b565b610a88565b60405161014c9190611bf3565b60405180910390f35b61016f600480360381019061016a9190611c0e565b610f11565b60405161017c9190611bf3565b60405180910390f35b34801561019157600080fd5b506101ac60048036038101906101a79190611c0e565b6112fa565b6040516101b99190611e6d565b60405180910390f35b3480156101ce57600080fd5b506101d76113f1565b6040516101e49190612159565b60405180910390f35b60008585856000835111610236576040517f08c379a000000000000000000000000000000000000000000000000000000000815260040161022d906121d8565b60405180910390fd5b600082511161027a576040517f08c379a000000000000000000000000000000000000000000000000000000000815260040161027190612244565b60405180910390fd5b60008151116102be576040517f08c379a00000000000000000000000000000000000000000000000000000000081526004016102b5906122b0565b60405180910390fd5b8560008111610302576040517f08c379a00000000000000000000000000000000000000000000000000000000081526004016102f99061231c565b60405180910390fd5b61030a6118f0565b60025481600001818152505033816020019073ffffffffffffffffffffffffffffffffffffffff16908173ffffffffffffffffffffffffffffffffffffffff16815250508a8160400181905250898160600181905250888160800181905250878160a00181815250504281610100018181525050868161012001818152505060078190806001815401808255809150506001900390600052602060002090600c02016000909190919091506000820151816000015560208201518160010160006101000a81548173ffffffffffffffffffffffffffffffffffffffff021916908373ffffffffffffffffffffffffffffffffffffffff160217905550604082015181600201908161041b9190612548565b5060608201518160030190816104319190612548565b5060808201518160040190816104479190612548565b5060a0820151816005015560c0820151816006015560e082015181600701556101008201518160080155610120820151816009015561014082015181600a015561016082015181600b0160006101000a81548160ff021916908360038111156104b3576104b2611f3a565b5b021790555050506001600a6000600254815260200190815260200160002060006101000a81548160ff021916908315150217905550600860003373ffffffffffffffffffffffffffffffffffffffff1673ffffffffffffffffffffffffffffffffffffffff1681526020019081526020016000208190806001815401808255809150506001900390600052602060002090600c02016000909190919091506000820151816000015560208201518160010160006101000a81548173ffffffffffffffffffffffffffffffffffffffff021916908373ffffffffffffffffffffffffffffffffffffffff16021790555060408201518160020190816105b79190612548565b5060608201518160030190816105cd9190612548565b5060808201518160040190816105e39190612548565b5060a0820151816005015560c0820151816006015560e082015181600701556101008201518160080155610120820151816009015561014082015181600a015561016082015181600b0160006101000a81548160ff0219169083600381111561064f5761064e611f3a565b5b021790555050506001600260008282546106699190612649565b925050819055506002546004600001819055503373ffffffffffffffffffffffffffffffffffffffff167faee8e5d3bbb2f71a951b5632cee20f7ac487b9f8ab4f66a236f7694b13af7c6a6002548361010001516040516106cb9291906126d8565b60405180910390a260019550505050505095945050505050565b600081600a600082815260200190815260200160002060009054906101000a900460ff16610748576040517f08c379a000000000000000000000000000000000000000000000000000000000815260040161073f90612760565b60405180910390fd5b6000600381111561075c5761075b611f3a565b5b600782815481106107705761076f612780565b5b90600052602060002090600c0201600b0160009054906101000a900460ff1660038111156107a1576107a0611f3a565b5b146107e1576040517f08c379a00000000000000000000000000000000000000000000000000000000081526004016107d8906127fb565b60405180910390fd5b82600781815481106107f6576107f5612780565b5b90600052602060002090600c020160010160009054906101000a900473ffffffffffffffffffffffffffffffffffffffff1673ffffffffffffffffffffffffffffffffffffffff163373ffffffffffffffffffffffffffffffffffffffff1614610895576040517f08c379a000000000000000000000000000000000000000000000000000000000815260040161088c9061288d565b60405180910390fd5b6002600785815481106108ab576108aa612780565b5b90600052602060002090600c0201600b0160006101000a81548160ff021916908360038111156108de576108dd611f3a565b5b02179055506000600a600086815260200190815260200160002060006101000a81548160ff021916908315150217905550610918846116de565b3373ffffffffffffffffffffffffffffffffffffffff167faee8e5d3bbb2f71a951b5632cee20f7ac487b9f8ab4f66a236f7694b13af7c6a854260405161096092919061291f565b60405180910390a2600192505050919050565b60036007828154811061098957610988612780565b5b90600052602060002090600c0201600b0160006101000a81548160ff021916908360038111156109bc576109bb611f3a565b5b0217905550610a35600782815481106109d8576109d7612780565b5b90600052602060002090600c020160010160009054906101000a900473ffffffffffffffffffffffffffffffffffffffff1660078381548110610a1e57610a1d612780565b5b90600052602060002090600c020160060154611875565b3373ffffffffffffffffffffffffffffffffffffffff167faee8e5d3bbb2f71a951b5632cee20f7ac487b9f8ab4f66a236f7694b13af7c6a8242604051610a7d9291906129a7565b60405180910390a250565b600085600a600082815260200190815260200160002060009054906101000a900460ff16610aeb576040517f08c379a0000000000000000000000000000000000000000000000000000000008152600401610ae290612760565b60405180910390fd5b60006003811115610aff57610afe611f3a565b5b60078281548110610b1357610b12612780565b5b90600052602060002090600c0201600b0160009054906101000a900460ff166003811115610b4457610b43611f3a565b5b14610b84576040517f08c379a0000000000000000000000000000000000000000000000000000000008152600401610b7b906127fb565b60405180910390fd5b8660078181548110610b9957610b98612780565b5b90600052602060002090600c020160010160009054906101000a900473ffffffffffffffffffffffffffffffffffffffff1673ffffffffffffffffffffffffffffffffffffffff163373ffffffffffffffffffffffffffffffffffffffff1614610c38576040517f08c379a0000000000000000000000000000000000000000000000000000000008152600401610c2f9061288d565b60405180910390fd5b8660078981548110610c4d57610c4c612780565b5b90600052602060002090600c02016002019081610c6a9190612548565b508560078981548110610c8057610c7f612780565b5b90600052602060002090600c02016003019081610c9d9190612548565b508460078981548110610cb357610cb2612780565b5b90600052602060002090600c02016004019081610cd09190612548565b508360078981548110610ce657610ce5612780565b5b90600052602060002090600c02016009018190555086600860003373ffffffffffffffffffffffffffffffffffffffff1673ffffffffffffffffffffffffffffffffffffffff1681526020019081526020016000208981548110610d4d57610d4c612780565b5b90600052602060002090600c02016002019081610d6a9190612548565b5085600860003373ffffffffffffffffffffffffffffffffffffffff1673ffffffffffffffffffffffffffffffffffffffff1681526020019081526020016000208981548110610dbd57610dbc612780565b5b90600052602060002090600c02016003019081610dda9190612548565b5084600860003373ffffffffffffffffffffffffffffffffffffffff1673ffffffffffffffffffffffffffffffffffffffff1681526020019081526020016000208981548110610e2d57610e2c612780565b5b90600052602060002090600c02016004019081610e4a9190612548565b5083600860003373ffffffffffffffffffffffffffffffffffffffff1673ffffffffffffffffffffffffffffffffffffffff1681526020019081526020016000208981548110610e9d57610e9c612780565b5b90600052602060002090600c0201600901819055503373ffffffffffffffffffffffffffffffffffffffff167faee8e5d3bbb2f71a951b5632cee20f7ac487b9f8ab4f66a236f7694b13af7c6a8942604051610efa929190612a2f565b60405180910390a260019250505095945050505050565b60003460008111610f57576040517f08c379a0000000000000000000000000000000000000000000000000000000008152600401610f4e9061231c565b60405180910390fd5b82600a600082815260200190815260200160002060009054906101000a900460ff16610fb8576040517f08c379a0000000000000000000000000000000000000000000000000000000008152600401610faf90612760565b60405180910390fd5b60006003811115610fcc57610fcb611f3a565b5b60078281548110610fe057610fdf612780565b5b90600052602060002090600c0201600b0160009054906101000a900460ff16600381111561101157611010611f3a565b5b14611051576040517f08c379a0000000000000000000000000000000000000000000000000000000008152600401611048906127fb565b60405180910390fd5b6001600460010160008282546110679190612649565b9250508190555034600460020160008282546110839190612649565b925050819055506001600785815481106110a05761109f612780565b5b90600052602060002090600c0201600a0160008282546110c09190612649565b9250508190555034600785815481106110dc576110db612780565b5b90600052602060002090600c020160060160008282546110fc9190612649565b925050819055506009600085815260200190815260200160002060405180608001604052803373ffffffffffffffffffffffffffffffffffffffff16815260200134815260200142815260200160001515815250908060018154018082558091505060019003906000526020600020906004020160009091909190915060008201518160000160006101000a81548173ffffffffffffffffffffffffffffffffffffffff021916908373ffffffffffffffffffffffffffffffffffffffff160217905550602082015181600101556040820151816002015560608201518160030160006101000a81548160ff02191690831515021790555050503373ffffffffffffffffffffffffffffffffffffffff167faee8e5d3bbb2f71a951b5632cee20f7ac487b9f8ab4f66a236f7694b13af7c6a854260405161123e929190612ab7565b60405180910390a26007848154811061125a57611259612780565b5b90600052602060002090600c020160050154600785815481106112805761127f612780565b5b90600052602060002090600c020160060154106112ef576001600785815481106112ad576112ac612780565b5b90600052602060002090600c0201600b0160006101000a81548160ff021916908360038111156112e0576112df611f3a565b5b02179055506112ee84610973565b5b600192505050919050565b606060096000838152602001908152602001600020805480602002602001604051908101604052809291908181526020016000905b828210156113e657838290600052602060002090600402016040518060800160405290816000820160009054906101000a900473ffffffffffffffffffffffffffffffffffffffff1673ffffffffffffffffffffffffffffffffffffffff1673ffffffffffffffffffffffffffffffffffffffff16815260200160018201548152602001600282015481526020016003820160009054906101000a900460ff1615151515815250508152602001906001019061132f565b505050509050919050565b60606007805480602002602001604051908101604052809291908181526020016000905b828210156116d557838290600052602060002090600c020160405180610180016040529081600082015481526020016001820160009054906101000a900473ffffffffffffffffffffffffffffffffffffffff1673ffffffffffffffffffffffffffffffffffffffff1673ffffffffffffffffffffffffffffffffffffffff1681526020016002820180546114a99061236b565b80601f01602080910402602001604051908101604052809291908181526020018280546114d59061236b565b80156115225780601f106114f757610100808354040283529160200191611522565b820191906000526020600020905b81548152906001019060200180831161150557829003601f168201915b5050505050815260200160038201805461153b9061236b565b80601f01602080910402602001604051908101604052809291908181526020018280546115679061236b565b80156115b45780601f10611589576101008083540402835291602001916115b4565b820191906000526020600020905b81548152906001019060200180831161159757829003601f168201915b505050505081526020016004820180546115cd9061236b565b80601f01602080910402602001604051908101604052809291908181526020018280546115f99061236b565b80156116465780601f1061161b57610100808354040283529160200191611646565b820191906000526020600020905b81548152906001019060200180831161162957829003601f168201915b505050505081526020016005820154815260200160068201548152602001600782015481526020016008820154815260200160098201548152602001600a8201548152602001600b820160009054906101000a900460ff1660038111156116b0576116af611f3a565b5b60038111156116c2576116c1611f3a565b5b8152505081526020019060010190611415565b50505050905090565b60005b600960008381526020019081526020016000208054905081101561187157600060096000848152602001908152602001600020828154811061172657611725612780565b5b906000526020600020906004020160000160009054906101000a900473ffffffffffffffffffffffffffffffffffffffff169050600060096000858152602001908152602001600020838154811061178157611780612780565b5b906000526020600020906004020160010154905060016009600086815260200190815260200160002084815481106117bc576117bb612780565b5b906000526020600020906004020160030160006101000a81548160ff0219169083151502179055504260096000868152602001908152602001600020848154811061180a57611809612780565b5b9060005260206000209060040201600201819055506118298282611875565b806004600201600082825461183e9190612af3565b9250508190555060016004600101600082825461185b9190612af3565b92505081905550505080806001019150506116e1565b5050565b60008273ffffffffffffffffffffffffffffffffffffffff168260405161189b90612b58565b60006040518083038185875af1925050503d80600081146118d8576040519150601f19603f3d011682016040523d82523d6000602084013e6118dd565b606091505b50509050806118eb57600080fd5b505050565b60405180610180016040528060008152602001600073ffffffffffffffffffffffffffffffffffffffff1681526020016060815260200160608152602001606081526020016000815260200160008152602001600081526020016000815260200160008152602001600081526020016000600381111561197357611972611f3a565b5b81525090565b6000604051905090565b600080fd5b600080fd5b600080fd5b600080fd5b6000601f19601f8301169050919050565b7f4e487b7100000000000000000000000000000000000000000000000000000000600052604160045260246000fd5b6119e082611997565b810181811067ffffffffffffffff821117156119ff576119fe6119a8565b5b80604052505050565b6000611a12611979565b9050611a1e82826119d7565b919050565b600067ffffffffffffffff821115611a3e57611a3d6119a8565b5b611a4782611997565b9050602081019050919050565b82818337600083830152505050565b6000611a76611a7184611a23565b611a08565b905082815260208101848484011115611a9257611a91611992565b5b611a9d848285611a54565b509392505050565b600082601f830112611aba57611ab961198d565b5b8135611aca848260208601611a63565b91505092915050565b6000819050919050565b611ae681611ad3565b8114611af157600080fd5b50565b600081359050611b0381611add565b92915050565b600080600080600060a08688031215611b2557611b24611983565b5b600086013567ffffffffffffffff811115611b4357611b42611988565b5b611b4f88828901611aa5565b955050602086013567ffffffffffffffff811115611b7057611b6f611988565b5b611b7c88828901611aa5565b945050604086013567ffffffffffffffff811115611b9d57611b9c611988565b5b611ba988828901611aa5565b9350506060611bba88828901611af4565b9250506080611bcb88828901611af4565b9150509295509295909350565b60008115159050919050565b611bed81611bd8565b82525050565b6000602082019050611c086000830184611be4565b92915050565b600060208284031215611c2457611c23611983565b5b6000611c3284828501611af4565b91505092915050565b600080600080600060a08688031215611c5757611c56611983565b5b6000611c6588828901611af4565b955050602086013567ffffffffffffffff811115611c8657611c85611988565b5b611c9288828901611aa5565b945050604086013567ffffffffffffffff811115611cb357611cb2611988565b5b611cbf88828901611aa5565b935050606086013567ffffffffffffffff811115611ce057611cdf611988565b5b611cec88828901611aa5565b9250506080611cfd88828901611af4565b9150509295509295909350565b600081519050919050565b600082825260208201905092915050565b6000819050602082019050919050565b600073ffffffffffffffffffffffffffffffffffffffff82169050919050565b6000611d6182611d36565b9050919050565b611d7181611d56565b82525050565b611d8081611ad3565b82525050565b611d8f81611bd8565b82525050565b608082016000820151611dab6000850182611d68565b506020820151611dbe6020850182611d77565b506040820151611dd16040850182611d77565b506060820151611de46060850182611d86565b50505050565b6000611df68383611d95565b60808301905092915050565b6000602082019050919050565b6000611e1a82611d0a565b611e248185611d15565b9350611e2f83611d26565b8060005b83811015611e60578151611e478882611dea565b9750611e5283611e02565b925050600181019050611e33565b5085935050505092915050565b60006020820190508181036000830152611e878184611e0f565b905092915050565b600081519050919050565b600082825260208201905092915050565b6000819050602082019050919050565b600081519050919050565b600082825260208201905092915050565b60005b83811015611ef5578082015181840152602081019050611eda565b60008484015250505050565b6000611f0c82611ebb565b611f168185611ec6565b9350611f26818560208601611ed7565b611f2f81611997565b840191505092915050565b7f4e487b7100000000000000000000000000000000000000000000000000000000600052602160045260246000fd5b60048110611f7a57611f79611f3a565b5b50565b6000819050611f8b82611f69565b919050565b6000611f9b82611f7d565b9050919050565b611fab81611f90565b82525050565b600061018083016000830151611fca6000860182611d77565b506020830151611fdd6020860182611d68565b5060408301518482036040860152611ff58282611f01565b9150506060830151848203606086015261200f8282611f01565b915050608083015184820360808601526120298282611f01565b91505060a083015161203e60a0860182611d77565b5060c083015161205160c0860182611d77565b5060e083015161206460e0860182611d77565b50610100830151612079610100860182611d77565b5061012083015161208e610120860182611d77565b506101408301516120a3610140860182611d77565b506101608301516120b8610160860182611fa2565b508091505092915050565b60006120cf8383611fb1565b905092915050565b6000602082019050919050565b60006120ef82611e8f565b6120f98185611e9a565b93508360208202850161210b85611eab565b8060005b85811015612147578484038952815161212885826120c3565b9450612133836120d7565b925060208a0199505060018101905061210f565b50829750879550505050505092915050565b6000602082019050818103600083015261217381846120e4565b905092915050565b600082825260208201905092915050565b7f5469746c652063616e6e6f7420626520656d7074790000000000000000000000600082015250565b60006121c260158361217b565b91506121cd8261218c565b602082019050919050565b600060208201905081810360008301526121f1816121b5565b9050919050565b7f4465736372697074696f6e2063616e6e6f7420626520656d7074790000000000600082015250565b600061222e601b8361217b565b9150612239826121f8565b602082019050919050565b6000602082019050818103600083015261225d81612221565b9050919050565b7f496d6167652055524c2063616e6e6f7420626520656d70747900000000000000600082015250565b600061229a60198361217b565b91506122a582612264565b602082019050919050565b600060208201905081810360008301526122c98161228d565b9050919050565b7f56616c7565206d7573742062652067726561746572207468616e203020455448600082015250565b600061230660208361217b565b9150612311826122d0565b602082019050919050565b60006020820190508181036000830152612335816122f9565b9050919050565b7f4e487b7100000000000000000000000000000000000000000000000000000000600052602260045260246000fd5b6000600282049050600182168061238357607f821691505b6020821081036123965761239561233c565b5b50919050565b60008190508160005260206000209050919050565b60006020601f8301049050919050565b600082821b905092915050565b6000600883026123fe7fffffffffffffffffffffffffffffffffffffffffffffffffffffffffffffffff826123c1565b61240886836123c1565b95508019841693508086168417925050509392505050565b6000819050919050565b600061244561244061243b84611ad3565b612420565b611ad3565b9050919050565b6000819050919050565b61245f8361242a565b61247361246b8261244c565b8484546123ce565b825550505050565b600090565b61248861247b565b612493818484612456565b505050565b5b818110156124b7576124ac600082612480565b600181019050612499565b5050565b601f8211156124fc576124cd8161239c565b6124d6846123b1565b810160208510156124e5578190505b6124f96124f1856123b1565b830182612498565b50505b505050565b600082821c905092915050565b600061251f60001984600802612501565b1980831691505092915050565b6000612538838361250e565b9150826002028217905092915050565b61255182611ebb565b67ffffffffffffffff81111561256a576125696119a8565b5b612574825461236b565b61257f8282856124bb565b600060209050601f8311600181146125b257600084156125a0578287015190505b6125aa858261252c565b865550612612565b601f1984166125c08661239c565b60005b828110156125e8578489015182556001820191506020850194506020810190506125c3565b868310156126055784890151612601601f89168261250e565b8355505b6001600288020188555050505b505050505050565b7f4e487b7100000000000000000000000000000000000000000000000000000000600052601160045260246000fd5b600061265482611ad3565b915061265f83611ad3565b92508282019050808211156126775761267661261a565b5b92915050565b61268681611ad3565b82525050565b7f5375636365737366756c6c7920637265617465642070726f6a65637400000000600082015250565b60006126c2601c8361217b565b91506126cd8261268c565b602082019050919050565b60006060820190506126ed600083018561267d565b81810360208301526126fe816126b5565b905061270d604083018461267d565b9392505050565b7f50726f6a656374206973206e6f74206578697374730000000000000000000000600082015250565b600061274a60158361217b565b915061275582612714565b602082019050919050565b600060208201905081810360008301526127798161273d565b9050919050565b7f4e487b7100000000000000000000000000000000000000000000000000000000600052603260045260246000fd5b7f50726f6a656374206973206e6f74206f70656e20616e796d6f72650000000000600082015250565b60006127e5601b8361217b565b91506127f0826127af565b602082019050919050565b60006020820190508181036000830152612814816127d8565b9050919050565b7f4f6e6c79206f776e65722063616e20757064617465206f722064656c6574652060008201527f70726f6a65637400000000000000000000000000000000000000000000000000602082015250565b600061287760278361217b565b91506128828261281b565b604082019050919050565b600060208201905081810360008301526128a68161286a565b9050919050565b7f5375636365737366756c6c792064656c6574656420746869732070726f6a656360008201527f7400000000000000000000000000000000000000000000000000000000000000602082015250565b600061290960218361217b565b9150612914826128ad565b604082019050919050565b6000606082019050612934600083018561267d565b8181036020830152612945816128fc565b9050612954604083018461267d565b9392505050565b7f53756363657366756c6c7920706169646f75742070726f6a6563740000000000600082015250565b6000612991601b8361217b565b915061299c8261295b565b602082019050919050565b60006060820190506129bc600083018561267d565b81810360208301526129cd81612984565b90506129dc604083018461267d565b9392505050565b7f5375636365737366756c6c7920757064617465642070726f6a65637400000000600082015250565b6000612a19601c8361217b565b9150612a24826129e3565b602082019050919050565b6000606082019050612a44600083018561267d565b8181036020830152612a5581612a0c565b9050612a64604083018461267d565b9392505050565b7f5375636365737366756c6c7920696e7665737420696e20612070726f6a656374600082015250565b6000612aa160208361217b565b9150612aac82612a6b565b602082019050919050565b6000606082019050612acc600083018561267d565b8181036020830152612add81612a94565b9050612aec604083018461267d565b9392505050565b6000612afe82611ad3565b9150612b0983611ad3565b9250828203905081811115612b2157612b2061261a565b5b92915050565b600081905092915050565b50565b6000612b42600083612b27565b9150612b4d82612b32565b600082019050919050565b6000612b6382612b35565b915081905091905056fea26469706673582212202becb1a6566c6e9e37bb4c60b48536487db53303c8bfd61aa0925be842ed6ffd64736f6c63430008180033",
  "linkReferences": {},
  "deployedLinkReferences": {}
}